:020000040050AA
:100000004252434D63666753000000003200000017
:10001000010104C05D0000000306413E199A8120E1
:1000200000011C0014500000E053000004500000C8
:10003000145000001000000000000000000000FE4E
:020040000000BE
:101400004252434D6366674400000000BA49000041
:101410000303094359573230382A2A0016030200C1
:10142000000201AC0200003200700F0000600800F2
:101430000008006400FF00000097000000540064F2
:1014400000FFFFFFFF1C00000058006400FFFFFFCB
:10145000FF0C00000048046000FFFFFFFF66000073
:1014600000E8064100FFFFFFFF00400000C40360EA
:1014700000FFFFFFFF1B00000068016000FFFFFF8F
:10148000FF0300000070016000FFFFFFFF0B000082
:101490000074016000FFFFFFFF0F00000078016093
:1014A00000FFFFFFFF130000004C046000FFFFFF80
:1014B000FF14000000B4014100FFFFFFFF0C91008A
:1014C0000044014100FFFFFFFF0A090000E406415C
:1014D00000FFFFFFFFA8A50000C4074100FFFFFFBA
:1014E000FF6A720000C8074100FFFFFFFF7A70002B
:1014F00000CC074100FFFFFFFFA4150000D007410B
:1015000000FFFFFFFF474C0000D4074100FFFFFF33
:10151000FFA37F0000D8074100FFFFFFFF7F760099
:1015200000DC074100FFFFFFFFEC0B0000E007417C
:1015300000FFFFFFFFEB55000050046000FFFFFFBE
:10154000FF0300000080056000FFFFFFFF24000094
:1015500000090104020102000107D402FF060A2368
:101560003C5A789105AC038403C0038403C503E3AC
:1015700003E303E303E303E303E303E303E303E33B
:1015800003E303E303E303E303E303E30347045653
:10159000048E046A04B5047E04560488046A04BFF9
:1015A00004043A043A043A043A043A043A4001364C
:1015B000015401540154014A01400145014A014AC4
:1015C000014A01400145014A014A014A01400145E1
:1015D000014A014A0190019001A401A401A401A4BF
:1015E00001A401B801B801B801043A043A043A046C
:1015F0003A043A043A030100006000059C02FFA08F
:1016000002FFA402FFA802FFAC02FF000060000579
:10161000C802FFCC02FFD002FFD402FFD802FF00B5
:10162000006000034000FF4400FF5406FF0000413B
:101630000003F401FFFF3004FFFF8C03FFFF0E0ED9
:101640000D0D0D0B0B0C0F10CD1F630D0D0C0C0CA5
:101650000D0D0E1111CE1F6410100F0F0F0F0F1074
:101660001315CF1F660E0E0D0D0D18191A1D1FCF65
:10167000206612121111111515151819CF226611B5
:10168000101010101E20202628CF2166D0006804DC
:10169000776CD0007004776CD6007004F76CD600BD
:1016A0007004776CDC007004776CDC007004776C7D
:1016B0000207ED01FF0605E403E403E403E403E4A9
:1016C00003FF03FF03FF03FF03FF0349044904492A
:1016D00004490449048804880488048804880408A8
:1016E0000508050805080508050805080508050892
:1016F000050805143F143F143F143F143F143F02E4
:101700000100006000059C023FA0023FA4023FA828
:10171000023FAC023F00006000047C033F7803FFFF
:101720008005FF5406FF0000410004F801FF3FFC64
:1017300001FF3FCC00FFFF8C03FFFF0D0C0C0C0CD6
:101740001FCF24630E0D0D0D0D1ECF2464100F0F3F
:101750000F0F1FCF2266100F0F0F0F1FCF2666131C
:101760001415161821FF2666131415151626FF26C4
:10177000664001AF0380B0776C4501CF0380B0773E
:101780006C4A01CF0390B0776C4A01CF0390B077D9
:101790006C5401350490B0776C5401350490B077E7
:1017A0006C0907E201FF0605E403E403E403E40334
:1017B000E403FF03FF03FF03FF03FF03490449049E
:1017C0004904490449048804880488048804880476
:1017D00008050805080508050805080508050805A1
:1017E00008050805143F143F143F143F143F143FED
:1017F000030100006000059C023FA0023FA4023FDD
:10180000A8023FAC023F00006000038005FFC40354
:101810003F0C00FF00006000015406FF0000410083
:1018200003F801FF3FFC01FF3F8C03FF3F0D0D0C50
:101830000C0C2422A5610D0D0C0C0C242245641007
:10184000100F0F0F2222256610100F0F0F241EE518
:10185000661414141515241FE566131415161824A0
:101860001F05664501DF04B72C4501FF04772C45B1
:1018700001FF04772C45010F05772C54018605776D
:101880002C54010804772C0007048300000004078F
:101890009801FF327F00006500005000004000000A
:1018A0003700002E00002800002500001E0000194F
:1018B0001200171200140000121200121600121863
:1018C00000121A00101A000F1A000D1A000C1A004C
:1018D0000A1A00070600070800070B00071D00078B
:1018E0001E00041400031900031B00031C00031F47
:1018F00000021B00021D00021E00021F000100006A
:10190000010400010600010800010A00010C0001A9
:101910000D00010F00011200011400011600011852
:1019200001011A00011C00011C0003072A0100002C
:101930000001000000140A00040000000000000A7A
:1019400002FE0BE4FE1C01E4FE1C010A02FE0BF188
:10195000FF0F00F1FF0F0001021C0100000C01004D
:101960000000010000000100000001000000010073
:101970000000010000000301B46C000427004FF6D2
:101980002020C0F220000078012802D0B6F5800F98
:1019900003D3304600F065FC7CBD68469CF5E7FF4C
:1019A00099F5DCBF000000F025FBD4F57AFABAF512
:1019B00014BE0FB500F0B9FC18B1BDE80F4052F6E7
:1019C0007DBEBDE80F40301908EB040152F672BE2F
:1019D000000090F8F70020F0020085F8F700A06AF8
:1019E000C16E14F6DEB9BDE8F04F01F0B0B808D012
:1019F0000FB4504601F037F9122805D00FBCBEF5E0
:101A0000E0BFB078BEF5D9BF0FBCBFF519B829B497
:101A100003EB42038CF8092093F900008CF80A00CC
:101A20005D788CF80B5029BC03EB42002FF6F9BC13
:101A300000000FB401F0F9F90FBCBAF550BA4FF03D
:101A4000010200F082FCF3F5E4B994F84A201AB1DF
:101A500094F85220BDF525B901F021FABDF525B95C
:101A60000000BDE8104001F024BA2046BDE8F04176
:101A700001F0C3BA000002B02046BDE810402AF6CB
:101A800058B901D1034810B1206844F6D4BB44F6DC
:101A9000E7BB115D20009DF5F2F848F2DC20C0F2B2
:101AA0003300016841F0010101609DF5EEB801F0DD
:101AB000AEFB002020709DF54DB9016000B501F02E
:101AC0000EFC00BD0000384601F023FC92F558FFE3
:101AD00093F5E0B8012801D992F5AFBE68464946B2
:101AE00001F01AFC002802D0062592F506BF92F5F7
:101AF000CEBE411C00D10025284499F56EFF92F519
:101B0000FBBE07D346F20C61C0F220010B88D11A4C
:101B100092F567B992F567B900001CB003F017F8A9
:101B2000BDE8F08100003046BDE8F04101F035BC71
:101B30000000204601F0D6FC2046F8F570BB204698
:101B4000BDE8304001F0DEBCBDE8F04101F0F6BC7C
:101B500000000AD02DE9FF0F314601F070FD06D0DC
:101B6000BDE8FF0F301DC6F50ABAC6F516BABDE8C6
:101B7000FF0FC6F54CBA18B1A562266362F64FBFD7
:101B80002820F8BD0000283D0C4602F08EFB0028FE
:101B900003D002F093FBBDE8F081CEF5B8BC02D0D3
:101BA0003146D3F57CB92DE9FF0F284602F0A9FB99
:101BB000BDE8FF0FD3F582B900009360D3601361D5
:101BC0000FB402F0A8FB10B90FBC3AF65FBE0FBC11
:101BD000BDE8F08F000048F23810C0F23300006812
:101BE00095F545BF0000BDE8FC4102F0B8BD03B467
:101BF0000C98C188022905D103BC0498002804D0A0
:101C00005BF631BB03BC5BF62EBB5BF6D7B903B406
:101C100040F6DC30C0F22000016821F00701891D88
:101C2000016003BC8FF563BD0000F0B54FF44E11A9
:101C3000D1F8602122F00F02ABF532BE000002F0B5
:101C4000F6BE4FF21353C0F207036168994203D006
:101C5000E569D61B0EF6B9BE0EF6AFBE002580466E
:101C600002F0FBFE01460FF612BB2DE9F0414FF4E6
:101C70004E17042802D0012817D04BE04D494B489D
:101C800007F5377788604C484B490160386840F069
:101C900004003860386820F00100386048494FF08F
:101CA0000100086000F02EFD34E045484A4D4FF435
:101CB00044140168464E21F0807101604349414857
:101CC0000860434900200870286801218000143012
:101CD000B5F5C2FB41490860D7F8D81241F0400180
:101CE000C7F8D812002156F8042B00EB8103491CD9
:101CF0001A600529F7D3002105E054F8042B00EB06
:101D00008103491C5A612A689142F6D3344940F252
:101D1000145008600020BDE8F08110B53148314909
:101D20000FF601FC4FF44E14D4F85C0120F480400F
:101D3000C4F85C010020C4F8A0022C492B480860BC
:101D40000DF66FFF10B92B492A4808609FF777F905
:101D5000AFF2E700294908602949022008702949A3
:101D6000284808602A4828490160294981602A4991
:101D70002948096848602A492948C1F8A00029482B
:101D8000016841F0007101600320C4F8E00201F035
:101D900034FD254935200870254901200870254962
:101DA0002448086026492448C1F8880110BD590D0F
:101DB0002700687E200011092700046B2000D86AE4
:101DC0002000DC0B20001F372700EC0B2000040450
:101DD00031006D1E2000D40B200064312000A40BC4
:101DE00020009031200064000000C0FA200064044C
:101DF0002000F4312000E40B20004C5820006C59E6
:101E00002000E909270098462000DD0F2700087D03
:101E10002000EB0F2700890D27006C712000B9D935
:101E20000908A04520002815320002622000876DB5
:101E300020001B1D2700940C2000291B2700A47FD5
:101E40002000054910B5D1E9003401228240134336
:101E500044EAE274C1E9003410BD8831200010B5B5
:101E600000F10904B0F809000021A0F557FF40F681
:101E7000B8300EF6D2FED4F803004FF47A71B0FBFE
:101E8000F1F00022BDE81040282196F528B82DE990
:101E9000F04781462A4E0020086037680C461546F8
:101EA00098462FB143462A4621464846B847206007
:101EB0004046B8F1050F35D009DC012832D00228A0
:101EC00030D003282ED0B8F1040F2BD107E006281C
:101ED00028D0082809D0B8F13F0F23D10BE0022DFC
:101EE00020D170682060B0681BE0262D1AD1F06800
:101EF0002060306915E0A5F58070D93803D170698C
:101F00002060B0696060B5F5ED7F03D0B5F5EE7F78
:101F100004D007E0F0692060306A02E0706A206057
:101F2000B06A60602068002807D143462A462146EF
:101F30004846BDE8F0479DF54FBDBDE8F087A8F7DE
:101F4000200010B54FF4C0020020C2F8C803C2F848
:101F5000CC031A494FF4B4730C5CC2F8D043401C54
:101F60009842F9D310BDECE710B50446012801D022
:101F7000144900E014490868BAF5AEFAB0F500FA61
:101F80002046B0F5F0F92046B0F5A7F90F480078E3
:101F900000280ED10E48806800280AD0C37B0C4868
:101FA0000D4A4FF482012BB10368C1F850318068AB
:101FB000106010BD4368C1F85031C068F8E7303A8E
:101FC0002700180920002009200078742000100E36
:101FD0002000D4F72000E00441009B48017800294C
:101FE00007D19A490A688280C96C41804FF001018B
:101FF0000170704795480178012907D1944982887A
:102000000A604288CA644FF00001017070472DE9F0
:10201000F84F05464FF0000806F65CF80EF608F992
:1020200000908B48222101604FF446190024C9F822
:1020300000420421C9F804124FF448163466C9F866
:1020400000403220B2F502FE8348F0654FF445119E
:102050008020C860C820B2F5F9FD2878DFF8ECB11F
:102060004FF4CA0A4FF482074FF4C00660B3FFF77B
:10207000C1FFD7F8A80120F0180040F00800C7F809
:10208000A80173483030016821F001010160C6F8F1
:10209000BC4171480460D6F8FC0220F00C00C6F880
:1020A000FC02DBF8080058B10AF5B070026922F0B2
:1020B00001020261026822F001020260CBF80840CE
:1020C00000980EF6B9F8BCE00020D3F5B4FE01206C
:1020D000CBF808000AF5B070016941F00101016117
:1020E000016841F001010160C9F800424FF0800130
:1020F000C9F80412FFF771FFA87808B9C7F8F441CE
:10210000E87801283CD002283AD0D6F8FC0220F02A
:102110000C0040F00800C6F8FC024F494FF0010ADD
:10212000C1F800A068784C49801E083108606878C2
:10213000801E091F08604949C9F8001000204FF4AB
:102140007A734FF445120146401C994202D8D16877
:102150000906F8D54FF448104FF400310166C82045
:10216000B2F574FDC6F8BCA13A483030016841F0C0
:1021700001010160E878012807D0022805D00CE0B1
:10218000D6F8FC0240F00C00C5E7D7F8A80120F013
:10219000180040F01000C7F8A80100980EF64CF89F
:1021A000287880BBE0B2A97840F0010060F3070412
:1021B000062919D2DFE801F003070E282B2F20F0A3
:1021C0001C0018300EE0C4F3072040F0010060F35B
:1021D0000F2409E0C4F3072141F0010161F30F244A
:1021E00040F0020060F30704E978C4F3072061F3CC
:1021F000830060F30F242879072810D80006800D8B
:10220000404240B212E01AE020F0E000EAE720F09D
:10221000E0002030E6E720F0E000A030E2E7082808
:1022200002D0092805D008E095F9050042F69CF98E
:1022300002E0A87941F693FC8046C9F8048304487B
:1022400004600120BDE8F88F000014FA2000A80106
:102250004100C004410000020C0010843100010064
:1022600080007CB51B4C0546E06A44F2036120EA1D
:102270000100E06268469CF57AFBDDE90021501917
:1022800041F10001400B40EAC1406269490B05067B
:1022900022F47F4242EA154508236561A269000ADB
:1022A00040EA01606FF30F0280B21043A061E06A60
:1022B00040F44240E062C4F87C3104202060E06ACF
:1022C00040F00100E062606B20F0300060637CBD94
:1022D00000002C81330010B50446042811D305F604
:1022E000F9FEFFF72EFE052C01D0AFF56DFFAFF51F
:1022F0003FFFAFF5BDFFB5F58AF8BDE8104005F624
:10230000DFBC10BD000010B5044A04490548BAF509
:1023100003F90449087010BD00008C5D2000444999
:102320002000E4F720006471200002480078C0F328
:10233000801070470000244B20000249086070475D
:10234000014948607047244B20002DE9F74FDFF822
:10235000F0810446DFF8F0A1D8F800009346A042CF
:1023600025D1794F3E6820E0351FA5421CD0284674
:1023700009F654F818B9284609F649F8A0B1BBF196
:10238000010F03D1A87CA17C884207D2A87CA17C44
:10239000884209D99AF80010884205D3019800B103
:1023A00005600120BDE8FE8F3668BE42DCD1002604
:1023B000D8F800004FF0FF35B1464746F8B1C17C70
:1023C00003291CD109F621F8032808D03868A17C1C
:1023D000807C884213D39AF8001088420FD33F685C
:1023E000384607F6ECFCA84205D3A84207D1B97CD1
:1023F000B27C914203D905463E464FF0010953484D
:10240000D0F800802CE098F80F00A8F1040703280A
:1024100024D1387D0D2821D1384608F6F6FF03284F
:102420000ED0BBF1010F03D1B87CA17C884207D24A
:10243000B87CA17C884211D99AF8001088420DD34B
:10244000384607F6BCFCA84204D307D1B97CB27C5D
:10245000914203D905463E464FF00109D8F8008065
:102460003B498845CFD13A48076818E0B97BA27C40
:10247000381F914212D9334A127891420ED38046C6
:1024800006F667F8A84205D308D198F81210B27C76
:10249000914203D9054646464FF000093F682C4853
:1024A0008742E3D12C484FF00008076824E0381F2A
:1024B00008F10108BBF1010F03D1817CA27C91429C
:1024C00007D2817CA27C914212D91E4A1278914295
:1024D0000ED3824606F63DF8A84205D308D19AF8F5
:1024E0001210B27C914203D9054656464FF00009BE
:1024F000B8F1030F03D23F6817488742D7D1681C51
:1025000003D0182D05D3681E0DE04FF6FF7000268E
:1025100009E0B9F1000F3146204602D007F611FD5F
:1025200001E007F65BFCA18921B1814201D2401A8A
:1025300000E00020019900293FF434AF0E6031E73C
:102540000000100E2000D00D2000000E2000080E0C
:102550002000F80D2000F00D200010B50DF601F957
:1025600013490870002010BD70B5054631F618F902
:10257000002438B90F4890F83B00C00702D141F65B
:10258000A6F908B12C6010E00B4EB4600B4C20682B
:1025900040F4807020600DF654FB2860206820F421
:1025A00080702060AFF23D00B060012070BD21FA64
:1025B000200040102000087D2000DC0B200070B5BA
:1025C000554E0024307810B10EF65FFB0446524899
:1025D000007838B952485249006808605248524958
:1025E0000068086050F683FD514D40B1286830B155
:1025F000C07B10B10AF63FFE08B1686820B195F8BB
:102600003900032813D015E028680168896901B1F1
:102610008847286819F650FF286809F6FDF858B170
:10262000286850F6A3FD50F6B4FD38B904E00AF668
:1026300056FF68B106F6E3FD06F695FC307828B142
:102640000EF623FB011B0120DAF5F0F8012070BD26
:1026500006F6D6FF06F6D3FD012006F668FEEBE788
:1026600070B52C4E0024307810B10EF60EFB0446E7
:102670002A48007838B92E482A49006808602D4851
:102680002A490068086050F632FD284D48B1286894
:1026900038B1C07B012802D00AF6EDFD08B16868A8
:1026A00020B195F83900032813D015E02868016897
:1026B000C96901B18847286819F630FF286809F60A
:1026C000ABF858B1286850F651FD50F662FD38B9A4
:1026D00004E00AF604FF68B106F657FD06F643FC6F
:1026E000307828B10EF6D1FA011B0220DAF59EF8F7
:1026F000012070BD06F684FF06F647FD012006F6B0
:1027000016FEEBE7AFF247110C480160AFF2AD01E6
:102710008160704700006D1E200078742000D8F79B
:10272000200050014100E0F72000E0044100100EBD
:102730002000D4F72000DCF720005C80200010B5DA
:10274000941DB6F58AF8082084F8290010BD70B5EC
:1027500098B0044600F1180506210CA8F6F5EDFD29
:10276000062221460CA8F6F507FE401C44D1594923
:1027700006220E462046F6F5FFFD401C3CD10622FF
:1027800029460CA8F6F5F8FD401C35D10622314645
:102790002846F6F5F1FD401C2ED10622294612A846
:1027A000F6F56CFE0622214606A8F6F567FE06A998
:1027B000062322460846F6F558FE22460623114611
:1027C0006846F6F564FE6946062322460846F6F595
:1027D0005EFE40496A46062324391046F6F560FE3F
:1027E0006A46062306A91046F6F551FE06226946FA
:1027F00012A8F6F5C1FD10B1002018B070BD01207F
:10280000FBE770B5A0B0044600F12005082110A830
:10281000F6F593FD0822214610A8F6F5ADFD401C03
:1028200044D12D4908220E462046F6F5A5FD401C50
:102830003CD10822294610A8F6F59EFD401C35D152
:10284000082231462846F6F597FD401C2ED1082275
:10285000294618A8F6F512FE0822214608A8F6F522
:102860000DFE08A9082322460846F6F5FEFD22467D
:10287000082311466846F6F50AFE694608232246F3
:102880000846F6F504FE14496A4608232439104622
:10289000F6F506FE6A46082308A91046F6F5F7FD88
:1028A0000822694618A8F6F567FD10B1002020B08F
:1028B00070BD0120FBE710B5094C206804F68FFDC0
:1028C000002804F1040002D0BDE8104099E7BDE8FB
:1028D00010403CE7000088D720006CD8200010D9B9
:1028E000200030B500F10904002589B0B0F80900D6
:1028F0002946A0F559FAE01CFFF783FF30B1082301
:102900006A46E11C084849F672FE05E0FF222021D4
:1029100068462AF649F812256946284633F653F8E0
:1029200009B030BD0000ACE1200070B50446866AF5
:1029300008F667FD002873D17E48638C0322017876
:102940003046A7F53DFE0121204608F659FE051E3A
:102950007BDD022D04DB204612F6E4FF00285FD168
:10296000608C801FA8425CDD204608F642FF78B1EB
:10297000681CE17B401029B1B16E19B194F8451083
:10298000002962D0218E81425FD8618E61B10DE055
:1029900096F8170110B1401E86F81701681C411007
:1029A000204612F616FF50E0A289C2B3624A12789E
:1029B00090424AD319B194F85200904245D3A06A8C
:1029C00090F8A40003F6DAFC94F8451031B190F8C1
:1029D000F710890705D4C069000402D5A07C8728B8
:1029E00033D05548618E94F85220491C407B8A426E
:1029F0001DD250B1A07C452807D90021242003F620
:102A0000F7F90521242003F6F3F994F8450060B1A5
:102A10004B49608C0978884207D92A2014E000E0ED
:102A20002DE0204609F622F80FE045200CE050B1D9
:102A3000A07C0D2807D90021242003F6D9F907210D
:102A4000242003F6D5F90D20A07494F84D00002839
:102A500015D0801E10F0FF0084F84D000FD1E07BF0
:102A6000012804D0204608F6D7FE002807D12A46C0
:102A70002046BDE870400523022112F680BE70BDDD
:102A800070B50446856A01200DF61EFA2868C169F2
:102A90002846884794F8480028B194F84B00A07461
:102AA000002084F84800204608F6B6FE50B9E07BC6
:102AB00070B10221204608F6A3FD401C41102046BB
:102AC00012F687FE0DF666F9C0B1E87B80B115E01D
:102AD00095F817010028F5D095F813110129F1D1C7
:102AE00095F80D110029EDD1401E85F81701E9E791
:102AF00001200CF69AFE00200CF671FEA06A90F8F8
:102B0000A40003F63BFC10F8F71F41F0020101702E
:102B100070BD10B52C220A490B48D6F518F90A49A0
:102B200009480860AFF2A501C161AFF2032141621B
:102B300010BD7523200021672000381F20001D676D
:102B40002000A4690F0090312000286720002DE9A3
:102B5000FC4790F83970054600F11C06B81CC0B25D
:102B600040F0800100243A4839F637FEA87B6946D8
:102B700009F67AFD0098DFF8DC8010F0030006D03B
:102B800001281BD002281CD003280CD11CE001987E
:102B9000A96A884200981BD9022109F66AF93060B7
:102BA000B8F80000706095F83A00DFF8AC9090B18A
:102BB00099F80210684609F622FA3BE001210098D4
:102BC000EBE70221009801E00121009809F651F994
:102BD0003060A86AE6E799F8021099F8030001440A
:102BE000E8E7781C05F12C01C0B21CF6A7FF80466F
:102BF000DDE9001040EA4120194901EB84018867B2
:102C00001849E0020860B8F14F0F09D208F102003C
:102C100040EAC42048F2801108431149091D0860A8
:102C20002819641C80F83E7099F80210684609F66D
:102C3000E6F947466946304609F60FFC012803D1FC
:102C40004F2F01D2042CCCD385F842402046BDE85A
:102C5000FC8704016000E00D2000721B200000E0F2
:102C6000310000E93100401D017A03290BD1084AE7
:102C7000D0F816109078B1F57A5F20F0C00004D03B
:102C8000B1F5FA5F02D012207047403090700020FA
:102C900070473E5D200010B501004FF0000007D0E6
:102CA000012904D1092102200EF6EDFAC0B210BDAF
:102CB0000821F8E710B50024801E082821D2DFE89B
:102CC00000F004060B0D0F111315022000E0032085
:102CD0000EF6FEF9C4B214E00420F9E70520F7E788
:102CE0000620F5E70720F3E70820F1E709200EF6B4
:102CF00009FA4FF448114FF4E040086009200EF63D
:102D000001FA204610BD10B54FF448142068022087
:102D1000FFF7D0FF00280ED0206845F6FF7108406D
:102D20002060206840F4006020600020FFF7B3FFBF
:102D3000002800D0012010BD70B500F10904407BCF
:102D40000026154609280BD0FFF7DDFFA0B120793A
:102D5000FFF7B0FF80B1E078FFF79DFF50B90BE0BF
:102D60000120FFF798FF002805D02079FFF7A2FF88
:102D7000002800D06E7170BD1220687170BD70B5F2
:102D80004FF44816144630683168C0F30330C1F37D
:102D9000031508B10B2001E00EF6FEFAA0713068B1
:102DA000B0F5E04F07D0072D15D2DFE805F012107F
:102DB0000E0C0A08060009200CE002200AE003209D
:102DC00008E0042006E0052004E0062002E00720D9
:102DD00000E00820E0710020607170BD000010B5B7
:102DE00029F637FF104901200870002010BD10B5EA
:102DF00029F650FF002010BD10B5012806D0002193
:102E0000AFF21300BDE810402CF625BD064C0020A3
:102E100020700146AFF237002CF61DFD2078002807
:102E2000FCD010BD000022FA20002DE9F04104463C
:102E3000164E164D174F24E01748E4F5FCFA00BB78
:102E400013491448E4F541FA288806EB800000682D
:102E500018B9114910200DF6DFFC2888FF280CD284
:102E60000B2806D0B8F5DFFF288806EB8000016844
:102E700005E0064800F039F903E0396809B1034874
:102E80008847641ED8D2BDE8F081FC690F00E4C811
:102E9000200024FA20008CC8200004000081024891
:102EA0000349008A086070470000E0142000048392
:102EB000310010B540F6D1FD0249086020F0004015
:102EC00010BD502920002DE9F04740484149407E7F
:102ED0000978884202D90020BDE8F0873E4DE86BB2
:102EE000C00701D00120F7E70DF6A2F981463B4863
:102EF000DFF8E88000240278D8F8000060E000EBFA
:102F000084010968E1B3A94259D000EB8400066846
:102F1000488F06F5D076012854D1D1F8A80380BB9C
:102F2000301DE0F524F9D8F800004FF4727A00EB78
:102F30008407524639682748E2F564FE307C16283B
:102F400010D12748D6F8E430A0F1E402EC3602F1C3
:102F5000EC0102F58272B34202D1C0E9001201E035
:102F6000C0E900213868D0F8A80310B91E48C5F898
:102F7000AC034646386851460EF6D5FA306801E093
:102F80001DE01FE000EB84000560C5F8F05100680B
:102F900000F5D070417D032906D0012906D0022911
:102FA00009D0042909D00DE0104900E01049001DA6
:102FB000E0F5D4F806E00E49F9E70E49F7E7641C9E
:102FC00094429CDB48460DF637F98BE70000A014CD
:102FD0002000905C2000F816200094142000921429
:102FE00020007C192000A01A2000000E2000F00D07
:102FF0002000F80D2000080E20002DE9FC410646B7
:10300000407C80460AF67CFD0546404614F619FAD7
:10301000070045D007F108000AF694FB040004D12C
:1030200007F10C000AF68EFB04463460032030746E
:10303000207BF06004F11400B060706061680746A6
:1030400009B12846884720464BF69FFE002827D026
:10305000C068800724D595F8DD003C78012801D1AF
:10306000062C1DD0202140462CF67AFF95F8DD0075
:10307000012815D1052C13D10020CDE90000002234
:1030800095F8DE001346F2F5B3FAE86B022140F042
:103090000400E86395F8DE00BDE8FC41F2F58EBA65
:1030A000BDE8FC81000001460020097D132903D002
:1030B000072900D102487047014810387047A83BE3
:1030C000270070B50546487D0C46122803D195F8B7
:1030D000DE002CF633FF21462846BDE8704028F676
:1030E00064BB90F8DE002CF629BF70B50646057962
:1030F00040880AF605FD04002AD00F2D06D0112DB8
:103100000CD03046BDE870401AF641B8E06BC00202
:103110001ED5A06C40F40070A0640EE00D4800784D
:10312000C00615D5606C80050CD594F8DE002CF631
:1031300005FF606C20F4007060642046BDE87040BC
:1031400019F651BEA06C810502D520F40070A06470
:1031500070BDE014200070B5044604F6BBFF224E9B
:1031600000204FF4461530742148016811B9D5F894
:1031700094100160BE20C5F894000020D2F55BFEDB
:103180001C48016941F001010161016841F0010140
:103190000160A079C0B1607C012800D00020E8F572
:1031A00040F8B27914494FF48200BAB1134A126858
:1031B000C0F850211248006808600B484BF6F1FB3C
:1031C000BDE8704004F67CBD2279617920684CF638
:1031D00079F80B48808AC5F80403E2E70A4A1268C6
:1031E000C0F850210948E6E7000024F120003875B6
:1031F000200060016500E0044100D4F72000DCF706
:103200002000E0142000D8F72000E0F7200010B5DF
:1032100001004FF0FF3007D00846AFF579FA4FF4C0
:103220007A72002329F649FB0449CA788979BDE8F6
:103230001040C2F3000294F552BEA80B20002DE905
:10324000F04104460D46AFF571FB062805D000207D
:10325000294920B10888860002E00120F8E70E889D
:1032600026480021078825480068C830AFF585FA50
:103270002449096889030AD52168B14207D93A1857
:10328000914204D9081A20600120BDE8F081287815
:10329000401E28700020F8E770B5F0B91A4C20687D
:1032A000C00201D592F5AFFC206880030DD5164D04
:1032B000A86850B192F558F9A868C00705D04FF436
:1032C0004E10016841F0010101602068000304D53F
:1032D000002092F568FD92F5B8FC002070BD0B4807
:1032E000C16A44F2036221EA0201C1624FF00401A3
:1032F000016070470000800C2000420C200028FA7A
:103300002000A00B2000DC0B2000401C20002C81A2
:1033100033000C490870704770B504460D46AFF590
:1033200005FB01460948062906D002782368A9183A
:103330008B4204D8002070BD00788200F6E7581A4E
:103340002060012070BD2CFA20003D5B20002DE99B
:10335000F04105460C00164602D0B4F5FA7F02D9BA
:103360000020BDE8F0810120FFF746FDE4F5ECF810
:103370000CF65EFF0746FF233246214628469AF5A3
:10338000ABFD044638460CF657FFE4F5DFF80020A5
:10339000FFF732FD2046E4E70000F0B4DFF84CC050
:1033A00000220225DCF8803018E013F81210B0F883
:1033B0006860B14210D11146641E08E005EB410778
:1033C00003EB41061F44491C3F88378089B28C4279
:1033D000F4DCACF8864001E0521C92B2BCF88640A6
:1033E0009442E2D8F0BCAFF528BC0C9420005DF606
:1033F0003CBF10B5040001D0606A18B90C49102018
:103400000DF60AFA0CF614FF002284F821200CF6BF
:1034100013FF07498C4202D007498C4201D1206931
:1034200000E0606B616ABDE81040084700000401DD
:10343000008100F6200030F620002DE9F84F054607
:1034400090F87C6090F88E004FF0000A022801D1BD
:1034500085F87CA005F148000024DFF8A4814FF036
:103460000409DFF8A0B1009033E0D5F8880000EB44
:1034700084010868A0B1EA6A904229D0C4EBC4076D
:10348000D8F8702009EB87073A44126802B3C1F8F4
:1034900000A0F6F52CFED8F870003844076810E05C
:1034A000211D01208840304202D156EA04000FD18C
:1034B000C4EBC402D8F8701009EB82000844076816
:1034C00037B195F88E30B5F88C2000210098B847B8
:1034D000641CDBF8000090F86B00C01CA042C4DC48
:1034E000BDE8F88F10B590F88E10022909D1444933
:1034F0000622803148300BF6A6FF002801D1404952
:10350000C86710BD414B10B5024693F8AE30A1F12B
:103510004000834210DD3A4BC0EB401404EB8010B6
:103520005B6903EB8000036833B112B10369934216
:1035300002D1828A8A4200D0002010BD2DE9F041DC
:103540000B46042115468046022A04D0032D04D0E0
:10355000012D04D004E0082102E00C2100E0062146
:103560000B22F6F59EFE020049D00020958202F162
:103570001603022D0BD00124032D11D0012D36D0BE
:103580001C804046BDE8F0410021C4F585BA23F80F
:10359000020B98F88E10022900D088201860F0E7FE
:1035A00023F8020B002118605860022018700420D4
:1035B000DFF850C0144F0FE0C1EBC106DCF87050CB
:1035C00000EB860635442D682DB11D780E1D04FADA
:1035D00006F635431D70491C3D6895F86B50ED1C8F
:1035E0008D42E9DC187800F08E001870C9E723F8E6
:1035F000020B06480068008910381880C1E7BDE852
:10360000F08168932000345F2000D8C02000385F2C
:10361000200070B505460221F6F56DFC040009D0C6
:103620002079032806D10020C3F5BBFE3E212046A9
:10363000C5F5CCF82846BDE87040CBF528BE70B57E
:103640000C46050006D00BF6D2FC0C34A04201D388
:10365000012070BD28460BF6ECFC03A14FF6F77075
:1036600099F5EFFE002070BD00006C326361705F61
:103670006C696E6B5F63686B5F706B745F737461B2
:1036800072743A2064726F7070696E672068636943
:10369000207061636B6574000000544810B501210F
:1036A000C160406800B180475248016841F08061C4
:1036B000016010BD4E484D4980681431B0F92200B8
:1036C0004989884200DCE8E7704710B5484C04F1AE
:1036D0001402A068D388B0F9221010469942007BEA
:1036E00001DB207010BD1289914201DC0020F8E757
:1036F000891A4843991AB0FBF1F0F2E770B50DF65C
:10370000B0FA3A4D28613B4890F8530072F619FB25
:1037100005F11404207872F68BFAA96891F8242038
:103720000B8C01EB420215885B1B0B8410800A8C0A
:10373000104402B20A8491F82400401CC3B281F8FC
:1037400024306079834202D3002381F8243092FB35
:10375000F0F300FB13221CB24C84B2EB500F01DBE0
:10376000641C4C8470BD70B5214D0024143503E0F9
:10377000FFF7C4FF641CE4B26879A042F8D8FFF7F1
:10378000A4FF1A488268017882F82510012141704F
:1037900070BD10B572F631FB15481430417910290F
:1037A00001D9102141711148002101708068018404
:1037B00080F824104184BDE8104020210DF6B3BEEE
:1037C00010B50A4CA06830B9262099F565FF26216E
:1037D000A0600DF6A8FEFFF7DCFFFFF7C4FFBDE811
:1037E000104067E70249002048707047000030FA37
:1037F0002000DC0B2000246520000E490120087009
:103800000F480D49C1600E4901660E4808218176B6
:10381000032101770A214177142181774FF4FA615E
:10382000018442F6E061418400218184074940F827
:10383000241C7047000000622000D1222700089A53
:10384000200001282700086020006534270010B5FB
:103850000B4CD4F8940000280FD100F038FD04F18F
:103860004404A188D1F573FC0749054888600649DE
:103870004FF0FF3008600220207010BD000020E2F1
:1038800020000D39270008E3200080FA200070B5E1
:10389000044623480078800161F65EFC072090F71B
:1038A00028FF204D10B1296801B1884700F0BCFC09
:1038B0006968002907D0042C01D9012000E000200C
:1038C000BDE87040084770BD10B594F508FB352081
:1038D00010BD10B52921A0B1826892B1134A1368B6
:1038E00043F4807313600F4BC2685A60027812B1C0
:1038F000012A03D005E061F6ADFC01E061F66CFC45
:103900000146084610BD10B511F625F908B1002092
:1039100010BD00F0ACF908B1012010BD022010BDAF
:1039200000003862200054FA200048813300154915
:103930000860704715480068704770B5124D002444
:103940002868002808D06868012804D0D2F571F9E9
:10395000032802D002E0002070BD01240B48296832
:103960000068884201D3012401E0012C08D1002025
:1039700001F0C0F901F019FB9AF53FF901206860E8
:10398000204670BD00005CFA2000806320009BF59B
:103990000FB8002801D09AF5EABF7047002801D07F
:1039A0009BF5E6B87047002801D09BF570B87047CA
:1039B000002801D09BF574B8704710B528B121B12B
:1039C0009BF51CF908B1012010BD002010BD002995
:1039D00001D09BF57BB87047002803D0002901D0A7
:1039E0009BF509B870470BF6A5BB99F555BE2DE9B7
:1039F000FF470CAC0646B4E82110002794E8000706
:103A000000970197029703970124771E1E2F02D873
:103A10008DF8006000E0002411B1CDF8011000E045
:103A20000024511E0F2902D88DF8052000E0002443
:103A300033B1834204D9AB4202D9ADF8063000E07D
:103A4000002430B1984204D2A84202D9ADF808004F
:103A500000E000249D4204D2854202D8ADF80A500D
:103A600000E00024BCF1000F02D08DF80CC000E093
:103A700000248DF80D808DF80E908DF80FA024B1E4
:103A8000102269463248E2F5BDF804B02046BDE890
:103A9000F0872F480E2180F8511040F252314165D5
:103AA000FFF78EBE2C48006890F825007047294823
:103AB0000068B0F92200704710B50446082099F557
:103AC000EBFD002804D0244944604A680260486045
:103AD00010BD22490860704722480068002800D0C5
:103AE0000120704770B51F48007800282BD00DF6D4
:103AF000B8F81D490968401A4FF47A71B0FBF1F02B
:103B00001349D1F8011088421DD3FFF7F7FDFFF7E5
:103B1000DCFDFFF7CFFD10490F48144D0A682AB1AC
:103B200002682B7892F825209A420CD000684C68E5
:103B3000297880F8251004E0616809B12878884761
:103B40002468002CF8D170BD04490860704744FA1D
:103B500020002465200038FA200064FA200034FA9E
:103B600020003CFA200031FA200040FA200030FA10
:103B70002000244A4FF48063401E1380102353809A
:103B800040F233335360204B00F00700491E43EAF4
:103B9000002001F01F0140EAC1209060704791F5BC
:103BA000AABC91F520BB91F53CBB91F5E4BD91F524
:103BB000D1BD91F5E7BD91F5CDBC91F503BE91F571
:103BC0002DBC104810B581680123C1F30222521C9C
:103BD00003FA02F0401EC1F3C421491C0C4A8B4079
:103BE00019021368A1F58071526841EA000143EAA5
:103BF000024201EA0201814203D191F5B9FA00289B
:103C000000D0012010BD401C2000C50002006483CC
:103C1000330030B40C46102819D81049087004B18C
:103C200001244C7002B101228A70002208E003EBEB
:103C3000420401EB42052488521CA5F80340D2B28D
:103C40008242F4D3014630BC0120FFF792BF30BC62
:103C5000704700F0BABC00F0E2BC00F0EBBC9CFA8C
:103C6000200093F59EBF93F5A2BF93F57EBF94F518
:103C700094B92DE9F04708ACB4E8E01094E80007E7
:103C8000314C2082A4F815102046E275007E13B155
:103C900040F0010001E020F00100207615B140F075
:103CA000020001E020F00200207616B140F004008E
:103CB00001E020F00400207617B140F0080001E098
:103CC00020F00800207684F819C0B8F1000F01D068
:103CD000012000E00020E0765FEA090000D001202A
:103CE00020775FEA0A0000D001206077BDE8F08706
:103CF00092F5EFB892F504B91348C07E002801D0C0
:103D000092F55EB970470F48007F002801D092F508
:103D10005EB970470C48407F002801D092F55EB92B
:103D200070470848C17E09B192F54AB9017F09B1CF
:103D300092F54DB9407F002801D092F54FB97047F8
:103D400092F564B90000D81D200038B5DBB2049CA0
:103D5000009471F61FFD38BD0000C9B2C0B239F63B
:103D600028B8674A40F28C4142F820104FF44E12B6
:103D700002EB80004FF4C061C0F80012704770B5CC
:103D8000054600200C4616461070272D00D970BD40
:103D9000284639F646F8010002D0284639F609F8D7
:103DA0005A2C1FD007DCA4B1572C1BD0582C19D08B
:103DB000592C06D116E05B2C14D05C2C12D0832C2D
:103DC00003D001203070012070BD2846FFF7C9FFE5
:103DD000F9E72146284639F62BF84949042041F8ED
:103DE0002500F0E7573CE1B2284600F0A6F8EAE7E4
:103DF0002DE9F04714461F4606460D4691F536FD5F
:103E0000002868D03F4805EB061200EB82006104F1
:103E100001680AD541F0080101603A46294630465A
:103E200091F537FD24F4804402E021F0080101609F
:103E300055EA06004FF44E1706D1D7F8000224F4D5
:103E4000807400F48070044305EB06104FF44E12AA
:103E500002EB80002107804643F6F01911D5012EB0
:103E600001D10A2D12D024F00801A0F80012D7F8D1
:103E7000D802800605D40120A84081B2304691F5D1
:103E8000D8FC4CF20F61012E0BD00CE0B7F8681291
:103E90004CF2076001EA090120400843A7F86802D4
:103EA000E5E70A2D19D0A8F80042012E13D10A2DFA
:103EB00005D00B2D03D00C2D01D00D2D0BD160049E
:103EC00009D5200507D444F400600A2D0FD007EB74
:103ED0008501A1F84002BDE8F087B7F8682204EA3E
:103EE000010002EA09021043A7F86802E7E7B7F801
:103EF0006822084002EA09021043A7F86802EAE7CC
:103F000000000084330038B5049C24B100240094E0
:103F10004FF63BF838BD0124F9E74FF609B84FF6E4
:103F2000AAB84FF6B6B80146012088404EF6C3BF86
:103F30000146012088404EF67CBF0F4A02EB80000C
:103F4000026822F47F620260026840F2173303EBDA
:103F500001110A430260704710B564290BD8B0FB09
:103F6000F2F04FF6FF72141A48436421B0FBF1F0EF
:103F70001C60101A586010BD00000084330070B53A
:103F80000E46144904461248097B012916D04FF405
:103F90004E120021C2F8A010016821F00201016058
:103FA000002071F65AFC05463146204671F697FD11
:103FB0000446284671F651FC20B270BD002070BD49
:103FC00005480068704703484068704702488068A9
:103FD000704744803300146520002DE9F041044609
:103FE0008068884616461F4640070BD500212346A9
:103FF000104A084660F6EFFB0F4918200CF603FC48
:1040000060F65AFC94B1B8F1000F0FD004F13005FE
:1040100038462F7093F5CFFC024633464146204682
:104020000AF6B8FB6E600020BDE8F0812920FBE7AE
:104030000000B83B27000402008110B5A5F54BF93C
:104040000648017841F00101017010BD0B46114690
:104050001A46A5F54EBBA5F527BCCC58200010B5D7
:104060000C4611F0E10F38D14CF618410C4234D017
:104070002146FAF511F9A0F5F851A4392CD11848C8
:1040800040F2A721A207018001D4362202806207F4
:1040900001D453220280620501D5792202802205D3
:1040A00001D5B7220280620401D5E02202802204F9
:1040B00002D540F253120280E20502D440F26F12A0
:1040C0000280A20502D44FF40A720280E20401D5F4
:1040D000A20400D40180002010BD41F6AD7010BDD7
:1040E0000000046220004949087000208860C86010
:1040F0004860704770B5454D044600202978002976
:1041000023D04FF47A7684B1696839B10CF689FD11
:104110003246002328F6D1FB6968401A3C49083131
:10412000012C09D0022C0BD00DE00CF67AFD3246A2
:10413000002328F6C2FB07E00A681044086002E08A
:104140004A68104448600020686070BD30490A78B1
:10415000002A07D018B18A680260CA68426000204D
:104160008860C86070472DE9F047294C05468846AD
:10417000216F606E0023A0FB010240F2E241A0FB30
:10418000016702FB017100FB0311DFF888903046E4
:104190004A46E82328F691FB2860216FA06E002391
:1041A000A0FB010240F2E241A0FB016702FB0171AA
:1041B00000FB031130464A46E82328F67EFBC8F888
:1041C0000000616E012011B1296801B92860A16E5B
:1041D000002905D0D8F80010002901D1C8F8000046
:1041E000BDE8F08760F69ABF10B504460020FFF7DF
:1041F00081FF204610BD01207CE7AFF21501064883
:104200004160AFF20F01816090F56FBD00006CFA64
:104210002000981E20000010A5D4BC3120001E49AB
:1042200008601E490860704770B5202038F6EDFD23
:104230000546212038F6E9FD0446282D01D1282C19
:1042400029D04CF6BCFF60F67FFE60F687FE282D75
:1042500007D02021284638F6ACFD2021284638F624
:10426000E7FD282C07D02121204638F6A2FD212188
:10427000204638F6DDFD0A48006808B14CF6E5FF37
:104280000948006860F66CFE04480068002802D007
:10429000BDE87040C3E770BD00007CFA20002C220E
:1042A0003500B8642000C46420000B2804D10879CC
:1042B000022801D00120704700207047034A12688D
:1042C00002B1104700207047000064622000104ACD
:1042D0004AF6444092F8761009B101290AD192F8C1
:1042E000791041B1012909D0022903D0032901D154
:1042F0004BF6803070474FF47A5070474FF4FA40D5
:104300007047034901EB40108189491C8181704746
:10431000000020E2200070B501200026174B0402A7
:10432000174D566108291FD004DC05290FD0072935
:1043300004D114E0202906D0372901D0002070BD17
:104340004FF4717101E040F2EC41518070BD0B49B6
:104350000C3951601021517040F2045109E0556050
:10436000567040F2245104E055600821517040F22B
:10437000345151809360D46070BD1C803300B08391
:1043800033001CB568469AF5F2FA2B48DDE90021A6
:10439000D0E900305A4041400A431BD003F690FC5C
:1043A000264902200839087025480CF60DFE2449DC
:1043B00003200870244908702448016821F007018F
:1043C000491C01609DF547FCAEF520FA20492020EC
:1043D00008701CBD1F4919480CF6DBFD1CBD1A48AE
:1043E00010B50068C0F30200012824D01348083833
:1043F000017800291FD1012101701648016B21F0BD
:1044000003010163016841F004010160016B41F0A7
:104410000101016303F65EFE08489AF5A8FA00223E
:10442000AFF29F0106480CF677FBBDE81040084943
:1044300003480CF6AEBD10BD000090FA2000C83154
:104440002000BB0B2000BC0B2000DC0B2000E95837
:10445000200020A107003081330070472DE9F0478C
:10446000DFF8B8A091469AF80020002A50D12B4ED0
:10447000904600B32B4F0024386086F85F1016E09A
:10448000306E99F503F93A6804EB440502EB8501B7
:104490004860306E0881A1F80A80A4B1102099F517
:1044A000F5F8396801EB85010860641CE4B296F800
:1044B0005F00A042E4D8B9F1000F22D01A4F0024C7
:1044C000C7F8009019E018481060EEE7306E99F5D3
:1044D000DDF83A6804EB440502EB85014860306E74
:1044E0000881A1F80A80ACB1102099F5CFF839689D
:1044F00001EB85010860641CE4B296F85F00A042FD
:10450000E4D8AFF2AB000949086001218AF8001035
:10451000BDE8F08707481060EDE798FA20002465B1
:104520002000F0642000FC64200048C42000F864EF
:1045300020006CC4200070B5144606460D4691F567
:1045400095F9002820D0304691F57EF90121A94047
:10455000884304F00101A940084381B2304691F537
:104560007DF90C49002305EB061203EB83000D5C7B
:104570005DB1084445886D0407D54078904204D168
:1045800003EB83000844047170BD5B1CDBB2082B95
:10459000EBD370BD0000FC0B2000084810B500688C
:1045A000084CC00708D03FF608FA06490988884237
:1045B00001D30020206010BD0120FBE70000D8825D
:1045C000330000263500585B200010B590F593FFAE
:1045D00026490020088010BD90F523BE90F5ACBFA1
:1045E00018B50088ADF800009DF800001F4AFF28AC
:1045F0000FD0931C197881420DD99DF8011003EB5F
:1046000040004C061146B0F80300098804D4014369
:1046100003E00020108018BD8143118018BD08B54B
:10462000684691F597F810B16846FFF7D9FF0E4834
:10463000008808BD38B50C4CA41C607850B16846A1
:1046400091F588F802E06846FFF7CAFF9DF8000080
:10465000FD28F8D1A178044809B100210180008823
:1046600038BD91F588B891F58DB89AFA20002DE9FA
:10467000F0410E46174670B14FF47A71484300215D
:10468000AEF57BF805464FF44E14282E0CD22FB110
:1046900040F2092004E04FF0FF35F4E740F20B4010
:1046A00004EB8601C1F80002002093F59AFC294929
:1046B00001200870284697F590F904F59874206851
:1046C00040F0010020604FF4C8708DF50BFC2068AD
:1046D00020F001002060206B20F0300040F010003E
:1046E0002063A06A20F4C060A062A06A20F00300EA
:1046F000A062206920F47F40206100206061E069B1
:1047000020F00100E061012093F5DDFBA06920F4B9
:104710008070A061E06A20F48040E062BDE8F08132
:104720000E480068400401D0002070470120704707
:1047300010B54FF44E10D0F82C1111F0040402D033
:104740000421C0F82C1193F594F910B90CB1012093
:1047500010BD002010BD20FA2000588133002DE943
:10476000FC41074668469AF502F9284EDDE9002427
:1047700030688168C068551A64EB0004A9F519F91E
:10478000022811D02348016811B3A5FB010304FBE3
:104790000131002205FB02111F4A1F4B12781B78C2
:1047A00012FB03F2D31720E0A9F50FF96421484367
:1047B000A0FB0513002202FB053200FB04240D467A
:1047C0000CF636FC0A21B0FBF1F2002328460BE080
:1047D00040F6EC30A5FB001304FB0030002205FB83
:1047E0000204642200230846214628F666F80B4A94
:1047F0000023801841F10001520028F65EF831686C
:104800000968084439469AF561F9BDE8FC81EC581D
:104810002000C40B2000BA0B2000B80B200020A100
:10482000070070B504460D461646D6F547FA10B196
:1048300041F6A97070BD324629462046B4F547FBC3
:1048400018B1A0F5F851A439F4D1034991F8D22355
:1048500081F8D02370BDE3F53ABC388520002DE9FE
:10486000FC410546D0F878010C4620B12846BDE849
:10487000FC415DF65FBEA668A878B17888422AD16F
:104880000120C5F8780160795DF6EEFBC5F86C0192
:10489000207B85F8850105F1E4006C22314607464E
:1048A000E1F5B0F9D5F86C0100220E215DF6EBFBC5
:1048B000A7602846DDF58FFC01461020CDE90040B9
:1048C000D5F86C2102B1521DE86E0423B3F587FDC3
:1048D000A660BDE8FC81292020700020607060790E
:1048E0005DF6C2FB217902B02246BDE8F0415EF6DA
:1048F0007EBE2DE9FC410546B0F876000C468007E7
:104900000BD5192020700020607002B02846BDE849
:10491000F0410A460F21DDF5D8BBA16805F1E4009E
:104920000E466C220746E1F56DF9A7602846DDF5D5
:1049300052FC01460C20CDE90040E86E0C23002219
:10494000B3F54DFDA660C4E7000070B5050041F663
:10495000AD7417D00D4890F904308B4209DB90F903
:104960001200884205DC934203DB904201DC8A425C
:1049700002DD41F6A87070BD284600F008F808B1C5
:10498000002070BD204670BD0000680B20002DE99E
:10499000FC410D46164607001BD0C7F576FC040007
:1049A00017D039466846B5F5B8FC94F802010228DC
:1049B00012D0A08968B1ADF800008DF802508DF8D2
:1049C000036000236A4604214FF62F50B1F5DDF84D
:1049D00028B10020BDE8FC81B4F87E00EAE70120A0
:1049E000F8E72DE9F0410D4616461F4608465BF6EE
:1049F00037FD040015D05CF658F82968C0F811108E
:104A0000A988A0F81510817909B9A17981718680EA
:104A1000078002210172BDE8F041002204215BF60B
:104A200003BD3046BDE8F041BDF5D4BF00000848E5
:104A3000016821F40071016007484FF000018160B6
:104A40004FF005020260C1604FF003018160FEE794
:104A500000004881330000903200054A0846126881
:104A6000D20704D0044A1268D20100D50920704749
:104A70000000D8823300DC0B20002DE9FC41064603
:104A800092F5F7FFD0BBCEB33078052836D1B6F813
:104A9000037000243846B9F59EFB69463846B5F5E3
:104AA00018FBDFF8848024E0214804EB840101EB4B
:104AB0008411D0F878067E2202EB81010844008838
:104AC000B84214D11B480AF67DFC0EE02968062284
:104AD00068460AF6B8FC28B9294615480AF644FC87
:104AE0000AF6A7FA28460AF671FC0500EED1641C06
:104AF000E4B2D8F80000007AA042D5D80E48016888
:104B000009B1304688470320BDE8FC8170B50A48EA
:104B10004FF0FF346508006820B18047411C01D088
:104B2000002170BD2046294670BD345F20003885C5
:104B30002000389D2000506220004C62200010B5FB
:104B40002BF6F7F90149087010BD72742000F0B51A
:104B500046189BB00446B6F5802F33D891B3D0F5F4
:104B600039FD01282ED10020C34D059004900A90F4
:104B7000286808900BF65CFB07460CF65CFA4FF4CD
:104B80007A71B0FBF1F02968BC4DC1F848010AE028
:104B9000600A03902868401C28606846D7F5E6FD47
:104BA00058B104F50074B442F2D338460BF644FB16
:104BB000D0F539FD01201BB0F0BDD0F534FD3846ED
:104BC0000BF63AFB0020F6E72DE9F04F07460025EB
:104BD0009DB088461646800741D1B819B0F5802FA0
:104BE0003DD8B6B3D0F5F6FC012838D10BF620FB42
:104BF00083460020A04C059004900A9020680890FD
:104C00000CF619FA4FF47A71B0FBF1F02168002428
:104C10004FF4007AC1F8480131E03819400AA6EB98
:104C200004095246039091451DD29448007888B1FA
:104C30001BA91046D0F5A9FC05000BD051460CF677
:104C400072FC08EB04014A462846E0F5DBFF0995B3
:104C50000CE004E0D0F5E7FC58460BF6EDFA002036
:104C60001DB0BDE8F08F08EB04000990834801688F
:104C7000491C01606846D7F582FD04F50074B44212
:104C8000CBD325B19DF86C102846D0F5C7FCD0F5E4
:104C9000CAFC58460BF6D0FA0120E1E770B50225B0
:104CA000784C0C280ED2DFE800F00606111611161B
:104CB000111611161E20207828B1012802D1D7F52F
:104CC0002BFD257070BDD7F505FDFAE7D7F519FD69
:104CD0000120207070BDD7F5FDFC2570BDE8704047
:104CE0000120D7F53DBD002000E00220BDE8704066
:104CF000FFF700BA2DE9F04100249CB00646A0461B
:104D0000D0F568FC012874D1012E02D10BF690FA7F
:104D10008046D0F54AFC01286AD1564F5A4D0124ED
:104D200038680890286809900CF685F94FF47A7174
:104D3000B0FBF1F03968C1F848014F480168491CDF
:104D400001606846F3F506FA00B900246846F3F5F9
:104D500012F900B900240420D0F5B6FC4FF4007716
:104D6000042805D00620D0F5AFFC06281BD035E07E
:104D700004233A4600202968D0F592FC0022062040
:104D80002968D0F5DBFE0620D0F59EFC062824D14C
:104D9000002204202968D0F5D1FE0420D0F594FC2F
:104DA00004281AD11AE006233A4600202968D0F5D3
:104DB00077FC002204202968D0F5C0FE0420D0F53D
:104DC00083FC042809D1002206202968D0F5B6FE0C
:104DD0000620D0F579FC062800D000240520D0F567
:104DE00073FC052806D00720D0F56EFC07281CD0E0
:104DF00036E03CE005233A4600202968D0F550FC17
:104E0000002207202968D0F599FE0720D0F55CFC28
:104E1000072824D1002205202968D0F58FFE05201F
:104E2000D0F552FC05281AD11AE007233A46002093
:104E30002968D0F535FC002205202968D0F57EFED2
:104E40000520D0F541FC052809D10022072029685A
:104E5000D0F574FE0720D0F537FC072800D00024D9
:104E6000012E02D140460BF6E7F9D0F5DCFB1CB071
:104E70002046BDE8F081A85820008063200060042F
:104E80002000E80B2000B058200070B50BF6E9FEBA
:104E9000144B1968884201D9411A03E04A1C1BD0FF
:104EA000C9430144104AD2E9004505FB01411160A4
:104EB00018609068A2F18C02884210D802F1480272
:104EC000081A50641188106D08441065BDE87040E0
:104ED0004FF48040D0F5D0BA40F27121E2E770BDC6
:104EE000000080FA2000ACE22000D0E84F2F0A44F6
:104EF000C0E8432F002BF8D110467047BDE8F047BB
:104F000000F001B800002DE9F041224F05460E46A1
:104F1000B868A32804D02846BDE8F0418CF5E2BF6C
:104F20001E482C03854203DB1D4910200BF674FC40
:104F30001EB901211B48FFF7D8FF7868DFF868C069
:104F4000DCF80020DCF80410002804DD411B3229C5
:104F500001DAA0F13205411B0BE07B68834206DDDC
:104F60007868DCF80030DCF804509B1A5918A4F17A
:104F700001047B68A3EB0103002B01DD002CECD1C5
:104F8000002E05D1711EBDE8F0410548FFF7ADBF09
:104F9000BDE8F081000000A03200400D03000403D2
:104FA000008158592000300C200000207047030178
:104FB000D003303A27002C0600002C0E00042D0EE2
:104FC00000092E0E000D2E0E02112F16021530169E
:104FD00002193016021C31160220321E0224321E23
:104FE0000227331E022B3426022E342604313526A6
:104FF000043435260438362E043B372E043D372E34
:1050000004403836044339360446393604483A3EBB
:10501000064B3B3E064D3B3E064F3C3E06523D4650
:1050200006543D4606563E4606583F4E065A3F4EEB
:10503000065C404E085D4156085F41560860425686
:105040000862435E0863435E0865445E0866456621
:1050500008674566086846660A69476E0A6A476EC9
:105060000A6B486E0A6B49760A6C49760A6C4A7E6E
:105070000A6D4B7E0A6D4B7E0A6E4C860C6E4D8619
:105080000C6E4D860C6E4E8E0C6E4F8E0C6E4F8ECF
:105090000C6E50960C6D51960C6D519E0C6C529E80
:1050A0000E6C539E0E6B53A60E6B54A60E6A54AE36
:1050B0000E6955AE0E6856AE0E6756B60E6657B6FA
:1050C0000E6558BE106358BE106259BE10615AC6B4
:1050D000105F5AC6105E5BCE105C5CCE105A5CCE80
:1050E00010585DD610565ED612545EDE12525FDE48
:1050F000125060E6124E60E6124C61E6124962EE12
:10510000124762EE124463F6124264F6143F64FEE4
:10511000143C65FE14396606153666061533000024
:10512000000000000000651B2700000000000000D8
:10513000000000000000451B2700000000000A5787
:1051400041524E494E47212120616E2061637469AE
:1051500076652074696D6572206174206164647283
:105160006573732030782578206973206265696ED5
:1051700067207265696E697469616C697A65640A31
:1051800000000301A8069CF72000000000000000BA
:1051900000000000000000000000C1112700030013
:1051A00046006513270043000000BB1727000500D9
:1051B00006000118270003000800E1082700070087
:1051C00000000A070000050700000DDB000008DBF7
:1051D0000000FC0260000C000000FF000000000066
:1051E0000000BC01600001000000FF0000000000A2
:1051F0000000CF540C00BCBCBCBC43434343000084
:1052000000000C01600000000000FF000000000032
:10521000000017580C00BCBCBCBC43434343000017
:1052200000006001650001000000FFFF00000000B9
:1052300000007001650001000000FFFF0000000099
:105240000000740060001B000000FF000000000070
:105250000000B804410000900000FFFF00000000C3
:10526000000060044100C0500000FFFF000000008B
:105270000000A8014100160000001E0F0000000001
:105280000000BC02600003000000FF0000000000FE
:105290000000E405410000000000FFFF00000000E6
:1052A000000020006000BE000000FF0000000000C1
:1052B00000001C006000FF000000FF000000000074
:1052C0000000180060000F000000FF000000000058
:1052D000000014006000FF000000FF00000000005C
:1052E000000024006000FF000000FF00000000003C
:1052F00000002C00600030000000FF0000000000F3
:105300000000DC04600008000000FF000000000056
:105310000000E804410000C0000000C000000000E0
:105320000000300441008000000080000000000008
:105330000000BC0141000003000000030000000069
:105340000000640441003A400000FFFF000000003C
:105350000000FC04410000000000FFFF000000000E
:1053600000003406410000480000FFFF000000007C
:10537000000015560C00BCBCBCBC434343430000BA
:10538000000041560C00BCBCBCBC4343434300007E
:10539000000007570C00BCBCBCBC434343430000A7
:1053A0000000EF550C00BCBCBCBC434343430000B1
:1053B000000059550C00BCBCBCBC43434343000037
:1053C0000000C004410021000000FFFF00000000B9
:1053D00000006D560C00BCBCBCBC43434343000002
:1053E000000001540C00BCBCBCBC43434343000060
:1053F00000000000000000000000000000000000AD
:10540000000000000000000000000000000000009C
:105410000000000000003E05000000000000000049
:10542000000000000000000000000000000000007C
:1054300000000C60EA000008800C0807A406640362
:105440000801000000000000000000000000000053
:10545000000000000000000000000000000000004C
:105460000000000000000000000000000000FFFF3E
:10547000FFFF00000000000000000000000000002E
:105480000000000000000000000004000001000413
:10549000000200008000000000000000000000008A
:1054A00000000000000000000000000000000301F8
:1054B0005CC0FA200070B50024124D1CE0124801B7
:1054C000190A68C2F31700120E05D0930706D049D7
:1054D00068FDF578FA0EE0496801600BE012F00C07
:1054E0000F03D04968FDF582FA04E0D20602D549DF
:1054F00068FDF586FA0834AC42E0D3BDE87040613F
:10550000F043BD0000F801000018FB20000301FC7F
:105510000318FB2000050E0201EB092700C9F40B5C
:1055200001910A2700D9A300020104270059B00203
:10553000022904270031310C023504270019B10B70
:1055400001391327002148080255042700F1E50816
:10555000026904270039F4020271042700A0FE0941
:105560000291042700F9A80202B504270091380629
:1055700002C104270020D70202CD04270009360B00
:1055800002E504270055CF0702491927003D6108AD
:1055900002ED04270055710A02F904270069DD0BAA
:1055A00001D91B2700B54C0B020505270009D700C0
:1055B0000219052700C9D70002310527004DDD007B
:1055C00001C11C270009DF00023D0527001137003B
:1055D0000249052700B9320002570527007533003C
:1055E000027505270061280002850527004D420449
:1055F000029D052700294304014B3627005DCB009F
:1056000002D11D2700F9670202A905270099D107D9
:1056100001751E2700CD890601BD1E27009D8C0641
:1056200002B50527009D9E0602C105270035950697
:1056300002CB052700FD690302D5052700E8DA0340
:105640000425B10121513C0D0111232700454300E0
:105650000173282700516400015D2A27009D340D45
:1056600002F90527008DEF0302090627001D390402
:10567000022106270009B30A023D06270029F60782
:10568000027F39270015430001B92F270035240B6D
:10569000011D302700ED64000259062700616900F2
:1056A00001F1302700F5640001A33127001D6A00D5
:1056B00001B3312700F9D5000269062700D50F0D87
:1056C00001E1322700B10E0D0175332700E1BC0C5A
:1056D00002710627006D0100029106270015C30123
:1056E00002AD0627008D1B0002C106270049F40702
:1056F00002C50627000DFD0702DF06270055F1034E
:1057000001FD34270091EE03018F3527002B01188E
:1057100074312000034901228240096801EA020035
:1057200070470000883120002B010C8831200000D8
:10573000000000000000002E010C01C0200000C08D
:10574000200000F630BF0601049D07270006010473
:1057500095152700F0011004000000DC82330001E1
:1057600000000000000000F0010401000000F00152
:105770001002000000DC8233000100000000000085
:1057800000F00198020300000010153200FFFFFF37
:1057900000F0F0F00014153200FFFFFF00F0F0F011
:1057A000001815320000000000FF00FFFF1C15323A
:1057B00000000000004C4C000020153200FFFFFAF2
:1057C000FFDD033EFE241532000000000000000053
:1057D0000028153200FEFF7F001410390034153206
:1057E0000000000000F0F0F000381532000000006A
:1057F00000000000005015320000000000CA060141
:105800000094153200FFFFFF0000070204981532D4
:1058100000F00F000033000000B0813300FFFFFFF5
:10582000FF04060000B4813300FFFFFFFF060800FD
:1058300000B8813300FFFFFFFF08060000BC813382
:1058400000FFFFFFFF04010000C0813300FF1F00C5
:105850000000000000AC813300FFFFFFFF040000E8
:1058600000DC8233000100000000000000640064DE
:1058700000030000001400000074076000C0000076
:1058800000C000000078076000020000000F000068
:1058900000940064000100000000000000F001041A
:1058A00009000000F001040A000000F001040B00F0
:1058B000000003050F001000000200008001001925
:1058C0000000000001030BFD03440400002C04064B
:1058D000060402030BFB000801FB00080106060892
:1058E0000301DC09C0FA20001600000000000000DF
:1058F00018000000000000002A0014009CFF200097
:105900002D0002006CFD2000320014009CFF2000DE
:10591000350002009AFF20004200240034FF2000DE
:10592000440018001CFF20004600080014FF20005F
:10593000520014009CFF2000530002006AFD20006A
:1059400001000204002801181400020400280018B5
:10595000150002070328021600002A1600020200A2
:105960002A170002070328021800012A1800020261
:10597000012A28000204002827182900020703280A
:10598000042A00DB2A2A00050200DB2A2B0002077A
:105990000328102C00DC2A2C000002DC2A2D000A2F
:1059A000020002294000020400280A1841000207F0
:1059B0000328024200292A42000202292A43000247
:1059C000070328024400242A44000202242A450036
:1059D00002070328024600232A46000202232A0067
:1059E000FF021200281F38A138AD823586A043136C
:1059F0005C471E5DAE01FF021503283802FF1B66DF
:105A00006C080A578E83994EA7F7BF50DDA302FF9B
:105A10008910001B666C080A578E83994EA7F7BF42
:105A200050DDA303FF0A0200022904FF0215032828
:105A30000805FF26FE2EE709244FB7914061D97A69
:105A40006CE8A205FFA9100026FE2EE709244FB737
:105A5000914061D97A6CE8A2010002040028011883
:105A6000140002040028001815000207032802167B
:105A700000002A16000202002A170002070328026B
:105A80001800012A18000202012A3000020400282E
:105A90002818310002070328043200DD2A320005ED
:105AA0000200DD2A330002070328103400DE2A3406
:105AB00000050200DE2A35000A0200022940000229
:105AC0000400280A18410002070328024200292A7C
:105AD00042000202292A430002070328024400244C
:105AE0002A44000202242A45000207032802460035
:105AF000232A46000202232A500002040028D37FF2
:105B0000510002070328145200CB7F520005020007
:105B1000CB7F53000A0200022900FF021200281F57
:105B200038A138AD823586A043135C471E5DAE01B7
:105B3000FF021503283802FF1B666C080A578E8384
:105B4000994EA7F7BF50DDA302FF8910001B666CBA
:105B5000080A578E83994EA7F7BF50DDA303FF0AAB
:105B60000200022904FF021503280805FF26FE2E65
:105B7000E709244FB7914061D97A6CE8A205FFA9E3
:105B8000100026FE2EE709244FB7914061D97A6CA8
:105B9000E8A201000100000001000000529AA06785
:105BA0000D72CD6497502ED473502B037E8803B5AD
:105BB000C60829A5A3CAA219505530BA13505200DD
:105BC0002007040003000000000812000000000885
:105BD0001200000060006000000060006000000033
:105BE000600030001E00000812001E00180028008F
:105BF0000000BC020700300030001E00000400045A
:105C00003C0090012003300030001E00A000A000E6
:105C10001E00000800080000000201016501680183
:105C2000000000000000000000000000050400006B
:105C3000000000004FBC00EEAAC8D1CCE4D2747DB5
:105C40000844C948F6C688C5EC77FE501C28D6A97A
:105C50003366D060512563FCC2CAB9F3849E17A78E
:105C6000ADFAE6BCFFFFFFFFFFFFFFFF00000000F3
:105C7000FFFFFFFFA2EE79BE954C2483A66FBD49BE
:105C80009C79994659EC6B2B39B245282056D9F3AB
:105C9000942DE16606000000FFFF0000314951002D
:105CA00000000000000000000000000000000000F4
:105CB000000000000000000000000000310106307C
:105CC0000200010001010100063008000B00000085
:105CD00000000000C82C01040000000000000000CB
:105CE0000000000000000000000001C7FE200006C8
:105CF00001000000000200000100FFFF00000000A2
:105D00000000000000000003E4FE2000FFFF000090
:105D1000000000000000000000000000FFFF020083
:105D20000000000000000000000000003101010040
:105D3000F94951000000000000000000BBB8A1803C
:105D40005F9F917131323334000000000000000089
:105D500000000000000000000000000043797072A5
:105D600065737300000000000000000000000000E8
:105D70000000000000000000000000000000000023
:105D800003030303030303030303030303030303E3
:105D900003030303030303030303030303030303D3
:105DA00005000800E803010301000000FEFFFFFFFB
:105DB00001000000010000001000401F401F2003F0
:0A5DC000060104D9425200FE000063
:020000040051A9
:101500002DE9F0411F460B4B1B6898420FD2040196
:10151000094D2B592E191878084B9847716828598E
:10152000B2680078064B3943BDE8F0411847BDE882
:10153000F08100BFE8445200EC445200213308001F
:1015400071320800F8B5204B204D214E98470024F9
:101550006319285D59780234B0472C2CF8D11D4C02
:101560001D4E1E4F00253368AB4204F10C0412D807
:101570001B4C1C4E194F00253368AB4204F110047C
:1015800011D8194C194E154F00253368AB4204F1A0
:101590000C0410D8F8BD54F80C3C54E90212187829
:1015A000B8470135DFE754F8103C54E903121878C6
:1015B000B8470135E0E754F80C3C54E902121878BA
:1015C000B8470135E1E700BFDD340800244552008B
:1015D0007134080000455200FC445200713208008A
:1015E000EC445200E8445200AC445200A84452007B
:1015F0007047000010B5044B9847044B9847044BC4
:10160000BDE81040184700BF45155100612E270066
:101610009D23510010B50A4A0346002132F831409B
:101620009C424FEAC10001D1104410BD01310B2989
:10163000F4D10021034A044C0846A0470020F4E7F7
:10164000C0FA20007C46520059320D000B88F7B5D5
:1016500003F1FF0292B2062A07460C464D892CD8A8
:101660004FF60272934203D04FF6057293421FD198
:101670002846414B98476289054640B913463F4C7E
:101680003F4A0146A0478024204603B0F0BD0092A7
:101690000346E1683B4E0020B047E560608121468B
:1016A0003846394B9847394B044628469847EBE76C
:1016B000354B03B0BDE8F0401847322BCE6846D01A
:1016C00017D82A2B35D02D2B4DD11846304B9847A3
:1016D00004460028D8D042882E4B40680021984705
:1016E000628860682C4BAA4228BF2A463146984738
:1016F00037E0522B03D0532BE7D0352BE4E7274BB1
:101700009847014620B9264A1C4B98478224BBE7DC
:101710003378042B25D1012D2CD10021214A174BE0
:1017200008469847204B00209847204B00241C6017
:10173000AAE71A4B9847044618B100211C4A0846EC
:10174000E2E7EBB2324639461A4DA8479CE7134B05
:101750009847014608B9184AD6E7E9B23046174B10
:101760009847002490E70021154A044B0846984703
:10177000012489E70D2487E7610D050059320D002A
:101780009F465200618A5100A9365100650D05003F
:1017900015165100416D0000316D0000BD2B510048
:1017A000BD465200F146520061625100F0FF200038
:1017B0000C475200317C5100414752000550510006
:1017C000714752002DE9F74381461D468020184B92
:1017D000DFF878800E46174698478023044638B9CC
:1017E000144A0146C0478025284603B0BDE8F0836F
:1017F0002A4600930A99104D03460120A84700216C
:10180000054603460D4A0846C0477DB123462A4691
:1018100039463046B9F1000F06D0094DA8470546B4
:101820002046084B9847DFE7074DF7E78125F7E7A4
:10183000610D050094475200618A5100D147520062
:1018400093290D00650D050081290D0059320D0009
:1018500010B5054B05489847082200210448054B60
:10186000BDE81040184700BF8F3008005D1A5100D6
:1018700058032100416D000070B50B4B0B4C58B95B
:101880004FF48C710A4898470A4A03460021A4463F
:101890000846BDE8704060474FF49D710648984780
:1018A000064A0346F2E700BFC3290D0059320D0076
:1018B00018FB20001048520030FC2000484852001D
:1018C00001F1FF039BB2062B01D8024B1847012000
:1018D000704700BFA93B51007FB58378013B0446A8
:1018E000052B00F29C80DFE803F003474C6D8B95DD
:1018F000808800F1FF039BB2062B05D8211D2088AC
:10190000484B9847044634E0474B98470546002823
:101910002ED0A2884388162A19D12BB9434B1868B8
:101920006860434B984768806A88E1888A420CD98E
:101930005AB1E0680388521A9A42A8BF1A466B68E7
:101940000280194420693B4B9847002411E0182A73
:10195000EAD1002BE8D1354BB3F85C308DF800307C
:101960001B0A8DF801300223C0F804D04380DBE766
:101970000124204604B070BD011D2F4B00889847FC
:10198000C0E72E4E336835463BB1A389E2899918EA
:10199000B1F5007F0ADD1124EBE74FF40070284B0E
:1019A000984730600028F0D10924E2E72868A18830
:1019B000E980184421691F4B9847A389E2891344A1
:1019C000AB80C2E71D4D2B68002BE4D004881D4B73
:1019D0001022002168469847EB88ADF800302B684C
:1019E0000393AB88ADF80A30002669462046124BB7
:1019F00001969847144B0446286898472E60B8E72C
:101A000000218388114A124D0846A847A088114B2F
:101A100098479AE78188104B0088984772E704241A
:101A2000A7E700BF593651001516510094FD20005C
:101A3000D35A0500316D00004D16510058032100A6
:101A4000610D0500416D0000650D05007E485200E6
:101A500059320D00C9515100C118510070B50C46E2
:101A600088B0054618B1042835D004202FE01C4B5F
:101A70008E689847A3890293E3881A4ACDE9000348
:101A8000294633462846184DA847184B9B680BB18A
:101A900020469847A368164E03B1E3883380308808
:101AA000B8B9A289134D14230021A8473388002513
:101AB00008A85A1B0595ADF81630236840F8103D6C
:101AC00018BF012207950C4B06929847284608B08C
:101AD00070BD0022E6E70846084B9847F7E700BFCD
:101AE000BD2B5100AB48520059320D0074FE20004E
:101AF00098FF20001D525100353C5100D91851006B
:101B0000024B1888003018BF0120704798FF200052
:101B10002DE9F047064617461D468946F1B11FFAE2
:101B200083F808F1070080B2174B9847044640B38A
:101B30000023A0F800904380A0F8048083712A4617
:101B40003946124B073098472246B0B2104B01215C
:101B5000984720460F4BBDE8F04718470E4B987842
:101B600010F0010008D00D4C1346B0B2AAB2A44642
:101B70003421BDE8F0476047094A0A4BBDE8F04709
:101B80001847BDE8F08700BF610D0500316D00000A
:101B9000F1290D00650D050098FF200093290D0027
:101BA0001449520059320D00F8B5044648B10329D2
:101BB00009D800210D4A0E4B0846984720460D4B88
:101BC00098470020F8BD478805880B4B061D3A460C
:101BD0003146284698470028F0D0084B5B69002B17
:101BE000ECD03A46314628469847E7E73B49520051
:101BF00059320D0065A20300015E510074FE200001
:101C000010B5014658B91378102B08D1937833B129
:101C1000034C044AA047044BBDE81040184710BDD0
:101C200059320D004B495200FF380D0010B5174BCB
:101C30001748184C98470221174B4FF4806098477B
:101C4000164B18600420164B98474FF46120154B33
:101C5000984738220021144B144898470323002248
:101C600013491248A04770B901211048114B9847F9
:101C700020B1114A114B0021084698471048114BDA
:101C8000BDE810401847104AF4E700BFF9A0030070
:101C900068435200516400005BA10300B0FF2000C4
:101CA000C52D0D00E3390D00416D000060032100DA
:101CB000511D51007B6400007749520059320D00DC
:101CC000011C51006B2D08009149520010B59AB0CB
:101CD000242111A81B4B1C4C9847BDF866200E927E
:101CE000BDF864200D92BDF862200C92BDF8602012
:101CF0000B92BDF85D200A92BDF85B200992BDF8F9
:101D000059200892BDF857200792BDF8542006923A
:101D1000BDF852200592BDF850200492BDF84E2027
:101D20000392BDF84B200292BDF849200192002198
:101D3000BDF847200092BDF84530044A0846A04748
:101D40001AB010BD750D050059320D00BB49520087
:101D5000064A13681E2101331360B3FBF1F201FB45
:101D600012330BB9024B1847704700BF70FD2000BB
:101D7000CD1C51000C4B10B5044618680B4B98470E
:101D8000014680B1238803806368C0F80230237A5B
:101D900083716389A0F80730092241F2FC60044B8B
:101DA000BDE81040184710BDB0FF2000A3A10300FC
:101DB000EBA1030010B50548054B984720B1034837
:101DC000044BBDE81040184710BD00BF6003210060
:101DD000BF640000AD64000013B5084844685CB1FE
:101DE0008DF80210CE208DF80320ADF8043069463E
:101DF000A047012002B010BD2046FBE7B8FF20003D
:101E000070B50B46044692B22C21054DA8472346D7
:101E1000044C054A0021A4460846BDE870406047CE
:101E200093290D0059320D00924B520000210346B8
:101E300010B5064A064C0846A047064B5B6823B11E
:101E40000021CB20BDE81040184710BDBF4B520009
:101E500059320D00B8FF20007FB505460B22002146
:101E600001A8194B194E9847194B93F82E308DF84D
:101E70000430184B1A7A8DF807205A7A8DF808200A
:101E80009A8B8DF80B20100A9A7E8DF809201A8CF7
:101E90008DF80A000021100A9B7F8DF80D000124A7
:101EA0008DF80E208DF80C300B4A8DF805102B465E
:101EB00008468DF80640B04701A92846074B9847C9
:101EC000204604B070BD00BF416D000059320D00C6
:101ED00094FE2000B8FF2000E74B5200D97C51004F
:101EE0002DE9F04188B088460021144C0093174634
:101EF0001E46134A0E9D03460846A0470021114A7C
:101F00000846A047104C114B10212846984762689C
:101F100082B1ADF80A80ADF80C708DF80E602DB16D
:101F2000102229460DF10F00094B9847636802A95A
:101F3000CC20984708B0BDE8F08100BF59320D00B1
:101F4000184C5200E9575200B8FF2000272E0D0010
:101F5000316D000013B5064B064A5960064B0193DC
:101F6000064B00930649074B074CA04702B010BD33
:101F7000B8FF2000E11E5100011E5100D91D510083
:101F80002D1E5100591E51002D735100F0B5124AFB
:101F9000D2F82F3092F82E201D2515FB02354FF672
:101FA000FF770022AB4215D01E7E002100E00131F8
:101FB000CCB2A6420CD9D3F8194004EB0114B4F802
:101FC00000C0BC45F3D164888442F0D10132D2B262
:101FD0001D33E7E71046F0BD94FE200010B4044C1A
:101FE000044A00210346A446084610BC604700BFCF
:101FF00059320D004F4C52002DE9F04FA1B00D4663
:1020000000910021CDE90223064603464A4A4B4C83
:102010000846A0474FF6FE739E4204D1484B1C6809
:10202000002C40F08380ADF8285000274FF6FF7554
:10203000DFF81081ADF82460ADF826503C4698F8E2
:102040002E305FFA87F94B4549D91D2303FB09FB65
:102050004FF0000A0DE019010491D2F819204FF653
:10206000FF700A44864211880DD081420DD10AF1D9
:10207000010A344AD2F82F205A445FFA8AF3117EBB
:102080009942E8D823E0B142F1D105935468002C7D
:10209000EDD00022114607A8A0470028E7D0D8F8C5
:1020A0002F20049B02995A44D2F819201A44059B08
:1020B000528895B201B10A80BDF826104FF6FF7222
:1020C000914204D0039A12B1039901220A60D8F810
:1020D0002F20934401379BF818209A42AFD9194B0F
:1020E00093F82E304B4598BF0024154B5A689AB18F
:1020F000112D03D8144BEB40DB070DD405F500730D
:102100009BB2032B08D905F580739BB2012B03D931
:1021100041F205039D420CD124B90C4A074B2146DC
:1021200020469847204621B0BDE8F08F4FF6FF7556
:10213000DBE71446F6E700BF854C520059320D002C
:10214000DCFF200094FE2000320003001F4D5200EF
:102150002DE9F041234C244B05460E469847A368D1
:10216000AB42074604D1E368B34211D1BDE8F08128
:1021700073B115B1E368B3420CD0E1681B4AF1B109
:10218000012100201A4B98470023A36015B9EDE701
:10219000002DEFD1321C174B18BF01229A75602217
:1021A0001A84154A128A52070DD40121C4E9021675
:1021B0000E4A86B108460E4BBDE8F0411847084666
:1021C0000E4B9847E0E7002FEFD12269002AECD1AF
:1021D00030221A84E9E731462846084BBDE8F04131
:1021E000184700BFDCFF20001152510001225100AE
:1021F000A532270094FD200094FE2000D9A10800FC
:1022000030B1C379032B03D190F90800014B184773
:10221000704700BF2165510038B51C468DB228B902
:102220002146049B074C2846A04738BD23B12146D0
:10223000049B054C2846F7E728460499034B98472A
:102240002046F2E7B3A5080097A50800CDA5080031
:102250002DE9F3410F46CDE90012002116461C4638
:10226000114ADFF84C80089D03460846C047CFB9A5
:102270000E4B1B88B34215D164B101239C422B70D5
:102280000AD00222944203F10100EA5405D102B0BF
:10229000BDE8F0812346F4E72046431C03222A547C
:1022A000D8B2F4E7FF20F2E79F4C520094FE2000E2
:1022B00059320D002DE9FF410E4600910021CDE974
:1022C0000123984604460346174608462C4A2D4DDE
:1022D000A8474FF6FF7398450FD02B4B1D690DB9DA
:1022E000002446E0642303FB08F33A4631462046C7
:1022F000AC4604B0BDE8F0416047244B93F82E2073
:10230000A2421CD9D3F82F10C4EBC40304EB8303FF
:1023100019440022087ED3B2984210D9D1F819305E
:1023200003EB0213B3F800C0B4450DD1B3F802C0FB
:10233000BC4509D1D3F80480B8F1000F06D10021C3
:10234000134A0846A847CBE70132E4E700253146A7
:10235000204600952B463A460E4CA04706460028DC
:10236000BED02A462946C047044630B930460A4BFB
:102370009847204604B0BDE8F0810124F9E700BF8A
:10238000D54C520059320D0074FE200094FE2000FE
:102390001E4D5200BD415200894252002DE9F04FBE
:1023A000574B87B09847574B5A68002A00F0A280D5
:1023B0009047554A5549DFF8D491554B5548DFF8B9
:1023C000D081DFF8D0A1DFF8D0B1534D9847042376
:1023D00089F80030082388F800300A238AF8003092
:1023E00010238BF800304D484D4B9847074641F27B
:1023F0000F30A84743F6FF76301A4A4B84B241F2B9
:1024000007301C80A847484B241AA4B241F203307D
:102410001C80A847454B241AA4B241F20C301C8002
:10242000A847434B241AA4B24FF498501C80A847E5
:10243000404B241AA4B241F209001C80A8473E4B2D
:10244000241AA4B241F206001C80A8473B4A201A75
:1024500083B213803A4A98F800003A4C013B9BB291
:1024600013809BF800209B1A374A9BB21380374A8F
:10247000013B9BB213809AF800209B1A344A9BB20E
:102480001380344A591E1180334A991E1180334AF1
:10249000D91E11801A1F324B324992B21A8099F814
:1024A0000030D21A92B20A80121A2F4992B20A80D0
:1024B0002E49013A92B20A8007F2EB1191FBF4F136
:1024C0002B4C114489B221802A4C013989B22180D8
:1024D000CDE9011200210090274C284ACDE903677D
:1024E0000846A0470021264A0846234607B0BDE813
:1024F000F04F18470D232349234C1046A04758E7B7
:102500002D1C510074FE20008E43520094FD2000CB
:102510007FF10300412B51008D1F510094FE2000DC
:1025200071C65100F40A2100EA0A2100E80A2100DC
:10253000EC0A2100E60A2100E40A2100E20A210057
:10254000E00A210014FEFFFF8C0B2100340B210058
:10255000300B2100880B210026082100C60721002E
:1025600038072100C80721003A0821003808210057
:10257000240821009803210059320D00284D5200F3
:10258000854D5200D525510001155100615E200096
:10259000EC5E2000320B21008E0B2100002108B5DB
:1025A000074A084B08469847074BDB6903B1984731
:1025B000064B00209847064B0022C3E9042208BDC1
