:020000040053A7
:10E000004252434D63666744000000000A0000006E
:10E01000060104ADE15300FE000021212121212051
:10E0200062616420736F7572636520666C617368EA
:10E0300020726561640A00435942545F32313300F3
:10E04000435942545F3231333034335F4D45534886
:10E050000021212121212077696365645F6669724F
:10E060006D776172655F7570646174655F636F7011
:10E07000795F666C6173680A002121212121207279
:10E080006561642065666C6173680A002121212145
:10E0900021206261642065666C617368207265612D
:10E0A000640A0021212121212062616420757064AD
:10E0B000617465206C656E677468207265616420A8
:10E0C00066726F6D2065666C6173680A002121219C
:10E0D000212120676F74206C656E0A0021212121A7
:10E0E000212062616420736F7572636520666C61C4
:10E0F000736820726561642C2031737420626C6FC8
:10E10000636B0A0021212121212062616420657254
:10E110006173650A00212121212120626164207739
:10E12000726974650A002121212121206661696CD0
:10E13000656420746F20636F707920696D61676515
:10E14000206461746120746F20656E640A0021216F
:10E1500021212120616C6C206461746120747261E2
:10E160006E7366657272656420746F2065666C619B
:10E1700073680A002121212121204552524F52204B
:10E1800065786974696E672077696365645F66693D
:10E19000726D776172655F7570646174655F636FDE
:10E1A00070795F73666C6173680A00000148024B06
:10E1B000184700BFD1E353006DE453008546F7468E
:10E1C00038B50D460446094B98472A464FF400716E
:10E1D0002046074B9847B0F5007F04D00548064B12
:10E1E0009847012038BD0020FCE700BF01E4530040
:10E1F00015380D001AE05300CF390D002DE9F74F07
:10E20000554B002401949847544B074698472346A2
:10E21000224621461C20524CA04752495248534B9B
:10E22000534C082298470F2100282FD10A20A047DD
:10E230000D210220A0470E210F20A0471021082009
:10E24000A0474C484C4C4D4DA0474D4B98474D4B2B
:10E25000984700214FF40070A847064688B1002176
:10E260004FF40070A847814658B14748A0474FF483
:10E27000007231463846454B9847054688B14448B8
:10E28000A0474448A04703B0BDE8F08F0620A04750
:10E290000D210920A0470E210B20A047102111209D
:10E2A000CEE704220DEB02003B4B31469847019B21
:10E2B0003A4A1A3B934201D93948E1E73948A04725
:10E2C0002B4628464FF40072374D4946A847A846CA
:10E2D00038B33648D4E705EB070A4FF400715046CF
:10E2E000334B984708B1334815E04FF4007231467C
:10E2F0005046D84708B130480DE005F50075019B40
:10E300009D4209D200234FF4007231462846C0478F
:10E310000028E0D02948A047019B9D4206D228480A
:10E32000AEE74FF40075DFF89CB0E8E74FF40071FA
:10E3300038461F4B984708B11E48A1E74FF40072BA
:10E34000494638461F4B984708B11B4898E71E4876
:10E35000A0471E4B984794E763E4530035390D00FE
:10E3600047390D0037E0530040E05300C9DE070095
:10E370007134080051E05300CF390D00D11D000069
:10E3800001E4530027E4530079E053004B3A0D00B9
:10E390008CE0530074E15300316D0000E6FF030090
:10E3A000A3E05300CDE05300C1E15300DCE0530093
:10E3B0006F3A0D0004E1530015E153001AE05300D9
:10E3C00026E153005D3A0D004EE1530005E4530091
:10E3D000042808B50BD100214FF44060054B984745
:10E3E00028B1054B00F6FF309847044B98470020B2
:10E3F00008BD00BFD11D0000BDE15300FDE1530089
:10E40000C3F698B37148016821F400710160704847
:10E410004FF0000181604FF005020260C1604FF0D3
:10E4200003018160FEE710B5D9F696F4694C5520DA
:10E4300020702046D9F6ECF4002811D02078C828A6
:10E4400002D16078642803D0BDE81040D9F62CB51D
:10E450006149EC2008706148017841F001010170C8
:10E4600010BD5F48C069A0F5A00070475D49086015
:10E4700070474FF4A270704770B50446002574F7DA
:10E4800070F06D1C44F8040B042DF8DB70BD70B502
:10E490000E46144602F12C054FF4A271104641F7C6
:10E4A00083F5266004F118000446FFF7E5FF80229B
:10E4B000214628469DF78DF6012070BD38B50246ED
:10E4C0004FF4A2746B4621464FF448504CF763F06A
:10E4D000BDF8001019B9A04201D1012038BD0020BB
:10E4E00038BDF8B5044600F12C066B4622464FF4C1
:10E4F000A2714FF448504CF75CF0C5B2BDF8000073
:10E5000090B9206868B94FF48C71304641F74CF5EA
:10E51000802204F1180130469DF75BF6BDF800003B
:10E5200010B90DB10120F8BD0020F8BD2DE9F0476C
:10E530000D46DDF8209016461F4699F82840D9F878
:10E54000001009F12C0A09F1080811B10020BDE8FA
:10E55000F08798B92BE02CB943461A460121504662
:10E560009DF78DF718F8040016F8011B484007F8CE
:10E57000010B08F80400641C04F00F042800A5F146
:10E580000105ADB2E7D117E02CB943461A46012187
:10E5900050469DF774F716F8010B18F80410414027
:10E5A00007F8011B08F80400641C04F00F0428009D
:10E5B000A5F10105ADB2E7D189F828400120C6E7F1
:10E5C00048607047406880B270470000488133005F
:10E5D00000903200F20B2000B4582000CC582000EC
:10E5E0002C0520004C58200000000000413800009D
:10E5F00000616561626900012E00000043322E3027
:10E60000360005436F727465782D4D3400060D0792
:10E610004D09021101120214021701180119011A01
:10E62000011E0322010F00000041524D00010700AE
:04E6300000001201D3
:04000005005242D98A
:00000001FF
